:1000000070EA00201973000081AE03000573000040
:100010000573000005730000057300000573000000
:10002000000000000000000000000000317500002A
:100030000573000000000000B574000005730000A7
:100040004D7700004D7700004D7700004D770000A0
:100050004D7700004D7700004D7700004D77000090
:100060004D7700004D7700004D7700004D77000080
:100070004D7700004D7700004D7700004D77000070
:100250004D770000FBF603004D7700004D7700005E
:100260004D7700004D77000045F703004D77000003
:100270004D7700004D7700004D7700004D7700006E
:100280004D7700004D7700004D7700004D7700005E
:100290004D7700004D7700004D7700004D7700004E
:1002A0004D7700004D7700004D7700004D7700003E
:1002B0004D7700004D7700004D7700004D7700002E
:1002C0004D7700004D7700004D7700004D7700001E
:1002D0004D7700004D7700004D7700004D7700000E
:1002E0004D7700004D7700004D7700004D770000FE
:1002F0004D7700004D7700004D7700004D770000EE
:100300004D7700004D7700004D7700004D770000DD
:100310004D7700004D7700004D7700004D770000CD
:100320004D7700004D7700004D7700004D770000BD
:100330004D7700004D7700004D7700004D770000AD
:100340004D7700004D7700004D7700004D7700009D
:100350004D7700004D7700004D7700004D7700008D
:100360004D7700004D7700004D7700004D7700007D
:100370004D7700004D7700004D7700004D7700006D
:100380004D7700004D7700004D7700004D7700005D
:100390004D7700004D7700004D7700004D7700004D
:1003A0004D7700004D7700004D7700004D7700003D
:1003B0004D7700004D7700004D7700004D7700002D
:1003C0004D7700004D7700004D7700004D7700001D
:1003D0004D7700002FF703004D7700004D770000A8
:1003E0004D7700004D7700004D7700004D770000FD
:1003F0004D7700004D7700004D7700004D770000ED
:100400004D7700004D7700004D7700004D770000DC
:100410004D7700004D7700004D7700004D770000CC
:100420004D7700004D7700004D7700004D770000BC
:100430004D7700004D7700004D7700004D770000AC
:100440004D7700004D7700004D7700004D7700009C
:100450004D7700004D7700004D7700004D7700008C
:100460004D7700004D7700004D7700004D7700007C
:0C0470004D7700004D7700004D77000034
:10048000014B1B685B68184700050020014B1B6887
:100490009B68184700050020014B1B681B69184723
:1004A00000050020014B1B685B6918470005002010
:1004B000014B1B689B69184700050020014B1B6816
:1004C000DB69184700050020014B1B681B6A1847B1
:1004D00000050020014B1B68DB6A1847000500205F
:1004E000014B1B685B6B184700050020014B1B6824
:1004F0001B6C18470005002010B4034C2468E46806
:10050000A4465DF8044B604700050020042810B5A0
:1005100011D883B104280CBF10242824A1420AD288
:10052000064C54F8200018B141568A42A8BF0A462A
:1005300000201A7010BD6FF01500FBE7D0140020EA
:100540000728034611DC10F12D0F10DB2E30094A6D
:1005500040B2105C02EBC00292F93C209A4207D0F4
:10056000002918BF0130C0B270471A207047002020
:10057000704700BF10690400072808B507DCFFF7C3
:10058000DFFF044B03EBC00090F93C0008BD0820DE
:10059000FCE700BF10690400072808B507DC00214C
:1005A000FFF7CEFF034B03EBC000806B08BD3F207D
:1005B000FCE700BF10690400024B01229A601A6038
:1005C000704700BF00E01050054B01225A60DA600E
:1005D0000022C3F81021C3F80021024B1A707047A3
:1005E00000E01050E5140020014B01221A70704702
:1005F000E5140020044BD3F8100101281CBF034B65
:10060000187800F00100704700E01050E514002059
:10061000024BD3F8080400F00100704700E01050CE
:10062000024BD3F8480400F00100704700E010507E
:10063000024BD3F84004C0B2704700BF00E0105036
:10064000084AD2F84C34D2F84C2413F4803306D044
:1006500002F00303C0B21B1A5842584170471846B3
:10066000704700BF00E0105038B51A4BD3F80C3477
:10067000DA0304D44FF48F716D2001F0E5FB164AC4
:100680000124164B106A536620F03F0094645464B2
:10069000136CDB03FCD4136A116C03F03F03C1F34A
:1006A0000A01C1F5806181EAE1750B29A5EBE175CD
:1006B00009DD3F2B04D0013303431362172DE6DC21
:1006C0000023936438BD0B31F8DA002BF8D0013BDE
:1006D000F2E700BF00E01050000812500100008057
:1006E00038B50A4C23781BB100232370FFF7BCFFF9
:1006F000EFF3108572B663780BB9FFF765FF05B9A4
:1007000062B6034B00225A6638BD00BFE8140020D1
:100710000008125070B5094D01260446AE70FFF76F
:1007200069FF28B9064BEE706C60C3F8046370BDB6
:10073000002CFCD0A04700236B60F8E7E8140020F1
:1007400000E01050024B00229A70DA705A60704735
:10075000E8140020014B1881704700BFE814002006
:10076000014B1889704700BFE814002010B5EFF363
:10077000108472B6064A53780133DBB25370537853
:10078000012B01D1FFF718FF04B962B610BD00BFFD
:10079000E814002010B5EFF3108472B60F4B5A78AE
:1007A00022B94FF4F8716D2001F04EFB5A78013AEE
:1007B000D2B25A705A7852B99A7B32B1084AD2F8FA
:1007C0000C24D20306D45B780BB9FFF7FDFE04B905
:1007D00062B610BDD87B01F029FCF8E7E8140020D0
:1007E00000E0105010B5FFF7C1FF0C4CFFF702FFFF
:1007F00060B1237C3BB90A4B01229A6104236374E4
:100800000023A37410BDFFF7C5FFF9E703230122FE
:100810006374034BC3F80423F2E700BFE81400201D
:1008200000E0105038B5134C01232370237CC3B96A
:10083000E37CB3B1A27C013B9A4212DAFFF7DAFE05
:10084000054601F099FBE37C012B82BFA37C0133B9
:10085000A37455B16369C31A0133022B09D935B1A9
:100860006061BDE83840FFF7BDBFA369F3E7A06151
:10087000F7E738BDE814002037B5184C237C63B97E
:10088000E06900F00300FFF7DBFE30B1EFF3108307
:1008900072B6627C1AB103B962B603B030BD0122F0
:1008A000627403B962B608230D4DC5F808334FF4DE
:1008B0002073ADF80630BDF806309BB25A1E92B2D6
:1008C000ADF80620002BF6D1C5F80C3184F82030A5
:1008D000FFF788FF0823C5F80433DEE7E81400209B
:1008E00000E010502DE9F041324CA37B002B5ED08C
:1008F000314BD3F80071D3F80861D3F8142112B941
:10090000D3F8182142B10022C3F81421C3F81821EA
:10091000C3F8102101F044FA5FB1274B0122C3F85C
:100920000823E3782BB100256368E5700BB1984785
:100930006560214D3EB10023C5F808310423C5F898
:100940000833FFF799FFD5F80C8194F82060F6B2D0
:1009500047B1637C032B05D1237C93B904236374D3
:100960000123AB61B8F1000F14D0134B0022C3F880
:100970000C21637C042B09D040F2AA216D2001F0E8
:1009800063FAFFF707FF02236374EBE70223637444
:10099000FFF700FF5EB1002384F82030637C022B58
:1009A00001D1FFF71FFFBDE8F041FFF7F3BEBDE83F
:1009B000F08100BFE814002000E0105010B5044C96
:1009C000E06900F00300FFF73BFE0028F8D010BDFF
:1009D000E8140020F8B5054650B10278022A07D87D
:1009E000437842B9013B1F2B02D88378212B07D9CA
:1009F0006FF015006BE0002BFAD18378002BF7D154
:100A00006E4B2022C3F8A020BFF34F8FBFF36F8F30
:100A10006B4EC3F8A0214FF0FF336A4CC6F8083381
:100A20000023C6F80031C6F80831C6F80C316370EF
:100A3000AB88A381FFF7ECFD10B10123A3706370B5
:100A400040F256332381D6F80C3413F480333FD070
:100A5000FFF7CAFD5C4801F0CDFA594E6023E07300
:100A60000022C6F804332B78A978012BE2612374A5
:100A7000E174A27444D0022B3BD0002B42D1FFF78B
:100A8000CFFD002848D0FFF7D3FDE36903F003034F
:100A9000984241D1AB79002B39D1FFF78FFFE37C2E
:100AA00063B12B7853B9FFF7A5FD054601F064FA51
:100AB0006FF00043002D7ED0C4E9050301232022FE
:100AC0000020A3733D4B6074C3F8A0211A62F8BDE7
:100AD000C6F81031FFF770FD394AD2F81031002BFB
:100AE000FBD0FFF7C1FDFFF76FFD384B00225A66C0
:100AF000B0E7FFF73BFED6F80C34DA03FBD5022350
:100B0000E361BCE74FF47F716D2001F09DF92C4B40
:100B10000422C3F80423C2E7294E01237361002392
:100B2000C6F80831237FC6F8403402F057FD88B17B
:100B30000123C6F84C35012333610423C6F804337E
:100B4000AB79002BABD1D6F804335B070FD440F25E
:100B5000B331D9E702F044FD0028E9D102F042FDAB
:100B60000028E5D102F040FD0028E1D1E3E7184B71
:100B70001F691A6907F0100742F010021A61D6F8CF
:100B800008310BB902F034FD0D4E01E002F02EFDEC
:100B9000D6F80831002BF9D0FFF710FF27B90C4A1F
:100BA000136923F0100313610423C6F808330023EC
:100BB000C6F8083173E7C4E905307FE700E100E0DB
:100BC00000E01050E8140020E10600000008125078
:100BD00000ED00E0074B07B51A783AB90122019001
:100BE0001A70FFF7C3FD0198FFF794FD002003B0D2
:100BF0005DF804FB0A15002010B5054C23782BB1D5
:100C0000FFF7A0FD00232370FFF7C4FD002010BDF7
:100C10000A150020034610B3007888B91A79012A12
:100C20001ED85A79012A1BD89A680E49643A8A421A
:100C300016D8D8680C4B98422CBF00200120704772
:100C400001280CD11A79012A09D85A79012A06D823
:100C5000DA680449643A8A4201D89868EAE70020D1
:100C6000704700BF3C8601000040420F10B5054CA4
:100C7000236813B1984700232360BDE8104000F0BB
:100C8000CDBC00BF0C1500202DE9F843884607466F
:100C900080B300F037F84FF0000905465FFA89F697
:100CA000AE420AD2304609F1010900F031F890F85D
:100CB0002640002CF2D1FF2E03D16FF00B00BDE8CF
:100CC000F883304600F024F805460146848480F815
:100CD000264080F828600A4800F09EFD202885F80C
:100CE00027000AD001232F62204685F8263088F895
:100CF0000060E4E76FF01500E1E76FF02200DEE747
:100D0000BB310000014B1879704700BF101500205F
:100D1000044B1A79824283BF1B68302202FB0030E9
:100D2000002070471015002010B510F003040AD100
:100D3000064A1171106028B130224A43214602F060
:100D400059FC204610BD6FF00D00FBE71015002088
:100D5000094A10B592F80033202B03D13E2102201E
:100D600001F072F818214B430321D018D358406882
:100D7000BDE81040184700BF181500200B2808B523
:100D800004D940F20E51064801F054F80001002346
:100D900000F1A04000F56220C0F82C3508BD00BF6E
:100DA000EDA50400B0F5B47F08B504D14FF494610B
:100DB000044801F03FF800F1A040002300F5622054
:100DC000036008BDEDA5040008B54FF4E0620D4BCB
:100DD0000820C3F83823FFF7D1FF4FF49070FFF7D6
:100DE000E1FF0920FFF7CAFF4FF49270FFF7DAFF27
:100DF0000A20FFF7C3FF4FF49470BDE80840FFF7E7
:100E0000D1BF00BF00200E50084B2022C3F8902015
:100E1000BFF34F8FBFF36F8FC3F890210122044BB4
:100E20005A604FF0FF32C3F80823704700E100E03A
:100E300000500850054BD3F85007D3F8541711F061
:100E4000404FF8D1C1F31301704700BF00200E508E
:100E500002282DE9F84317461E4604D940F2A7118F
:100E60006E2000F0F1FF48B91E4B4FF00042C3F86E
:100E7000A02120221C4BC3F890211A611B4B012595
:100E8000DFF860801C5C05FA04F92046C8F8389346
:100E9000FFF774FFA00000F58070FFF783FFFFF7F6
:100EA000C9FF874276EB01031AD30B2CC8F83493A1
:100EB00004D940F2EF310E4800F0BCFFB6F5801FB8
:100EC00002D340F2F531F6E72401284604F1A044AC
:100ED00004F56224C4F82075C4F82465BDE8F883DD
:100EE0000020FBE700200E5000E100E0206A040033
:100EF000EDA50400022810B504D94FF4DA716E2074
:100F000000F0A2FF094A08B9C2F8A001084B1C5C16
:100F10000123A3402046C2F83833FFF72FFFA0007B
:100F2000BDE8104000F58070FFF73CBF00200E5078
:100F3000206A040008B5FFF747FF024B0022C3F800
:100F4000A02108BD00200E5008B5FFF75DFF114B32
:100F5000D3F8042522F00302C3F80425D3F80825AA
:100F600042F00302C3F80825202292FAA2F2B2FA54
:100F700082F2092A04DD40F29131074800F05AFF5D
:100F8000C3F810250122DA604FF00042C3F8802038
:100F900008BD00BF00500850EDA5040070B5194C05
:100FA0002026194AD4F81035184D03F001031370A8
:100FB000D4F8103543F00103C4F81035FFF7C4FF2F
:100FC000C5F89C60BFF34F8FBFF36F8FFFF7FCFE38
:100FD0000023C5F89C610E4AC4F8A0314FF00043CD
:100FE000C2F88030A2F58022C2F88031012302F5D8
:100FF0007832C2F80435A2F58022C2F80435EE61D9
:1010000070BD00BF00200E504918002000E100E034
:1010100000400C500E4B70B51B5C01250D4E044674
:101020009D40D6F83023154211D09B0003F5807007
:1010300000F1A04303F562231B6843B1FFF7B2FE42
:101040002046C6F83853BDE8704000F01FBD70BDA3
:10105000206A040000200E50034BD3F8043313B170
:10106000072000F013BD7047005008500028ADBFA6
:1010700000F1604000F00F00044B00F56140B4BF88
:10108000185C90F800034009704700BF14ED00E0C1
:101090001822034B50431A181B585068184700BFBA
:1010A000181500200A4B03F8110093F8420083F84A
:1010B0004210C2B220284FF0200016BF03EB4202BC
:1010C00083F84110517003EB41025070704700BF2C
:1010D00050180020064B0022C3F81825054B93F842
:1010E000581019B183F858200FF034B9704700BF79
:1010F00000B004505018002008B5044BDB6D23B13C
:101100009847BDE8084000F01DBF08BD50180020FA
:1011100008B520B9024B0BB1AFF3008062B608BD31
:10112000000000002DE9F8431B4C4FF020081B4E37
:1011300094F841501A4F202D01D1BDE8F88314F8DE
:101140001530013BDBB2052B04D816F80390B9F13A
:10115000080F04D140F25151012000F075FE0FB18B
:10116000AFF30080EFF3108072B604EB45035B78B9
:1011700084F8413094F84230AB4208BF84F8428092
:10118000FFF7C6FF01232846494604F81530FFF74C
:101190007FFF94F84150CEE750180020236A0400E6
:1011A00000000000202A70B5054604D14FF4C0713C
:1011B000012000F049FE2029144B14BF03EB41012C
:1011C00093F8404003EB420018BF4C7840780CBFC6
:1011D00083F84000487020460146064603F8105048
:1011E00003EB40008A424078F6D193F8425003EB7B
:1011F000410183F84260EAB2202D16BF03EB4202A0
:1012000083F84140547020224A7070BD501800206D
:1012100010B5094CD4E91223B3F1FF3F08BFB2F176
:10122000FF3F07D001F012FF4FF0FF324FF0FF33C6
:10123000C4E9122310BD00BF5018002010B5054CA2
:1012400094F850302BB10220FFF754FE002384F8AD
:10125000503010BD5018002010B50F4CFFF758FF4C
:1012600024B1002140F21440AFF300800B4B93F8FF
:101270004130202B09D024B1002140F21B40AFF3B4
:101280000080074B187800F0D1FE24B100214FF404
:101290008460AFF3008010BD0000000050180020F3
:1012A0004818002010B5084CD4E91223B3F1FF3FD1
:1012B00008BFB2F1FF3F05D101F0C6FEFFF7BAFD4E
:1012C000C4E9120110BD00BF5018002038B5104B02
:1012D0001B78202B0CD00F4BD3E9044598696A3456
:1012E00045F10005241845F100052046294638BD82
:1012F00010F14104137B41F10005012BF5D0FFF7FC
:1013000079F90028F1D101F0A5FE0419EBE700BF3F
:1013100018180020201800202DE9F04705460C463B
:1013200017464FF01809DFF83880DFF838A0202C76
:1013300008D009FB04F6284606F10801414402F0F2
:10134000ECF810B10120BDE8F08746443C706B7B9F
:10135000727D9A42F7D90AEB44046478E7E700BF4C
:1013600018150020501800202DE9F0472023DFF841
:10137000488006460D4617464FF01809DFF83CA096
:1013800098F840400B70202C08D12B783A46214623
:1013900030463B70BDE8F047FFF7BEBF09FB04A035
:1013A0003146083002F0B9F80028EED02C7008EB76
:1013B00044046478E7E700BF5018002018150020A7
:1013C0002DE9F74F87180E4643F10008D1E90023B5
:1013D000974278EB030337D3DFF874900DF10702DF
:1013E0000DF106013046FFF7BFFF70BB9DF80710F7
:1013F0004FF0180A337B0AFB0191D1E902B5086965
:101400001BF1290445F10005041945F10005012BE4
:1014100013D00B7D012B10D101F01CFEA4EB0B02AD
:1014200082420ADA9DF807300AFB0393D3E90245AA
:1014300001F010FE041945F10005A74278EB050301
:1014400002D3C6E90045C9E7002003B0BDE8F08F2C
:10145000181500202DE9F04F18264F4C8DB0054689
:101460005E43884606AFA2193444083294F814A0AB
:101470000FCA044687E80F000F4601F0EBFD651B1D
:10148000064600F11C0B67EB0808BAF1010F11D0FA
:10149000FFF7B0F8414AD2E91292B2F1FF3F08BF1C
:1014A000B9F1FF3F019274D0009001F0D3FDDDE966
:1014B000003263B122463B460020FFF7C9FC81465B
:1014C00090B94FF0000948460DB0BDE8F08FB4EB7D
:1014D000090967EB0202814572F10003EAD25D451A
:1014E00078F10003EDD3E5E7BAF1010F08D05D45CF
:1014F00078F1000304D2FFF7D5FEFFF79FFE1CE052
:10150000FFF786FEBAF1010FF7D05D4578F10003D1
:10151000F3D3A21B4FF0020067F10003FFF798FC22
:1015200020B940F2DB11012000F08EFC1B4B93F838
:10153000502012B9012283F85020B4F119024FF063
:10154000010067F10003FFF783FCC0B1FFF7C2FDA4
:1015500000234FF0FF304FF0FF3102AD8DF82830FF
:101560008DF824A00E4C0293CDE904010FCD0FC4D9
:101570000FCD0FC495E8030084E80300A3E701231F
:10158000084AC2F81835054A82F858300EF0DCFED9
:10159000DEE700288ED1A2E71815002050180020A1
:1015A0002018002000B00450F8B5174D002442F276
:1015B0002003164A4FF0FF304FF0FF31144F2646FC
:1015C000A5F840302023146085F842303B7082F843
:1015D000204085F8523085F85040C2E90201C5E943
:1015E000120105F814600134202CFAD1094800F0EA
:1015F00001FD094B3C70187085F85860FFF7CEFC70
:10160000012385F85330F8BD501800202018002021
:101610001818002025110000481800202DE9FF4768
:10162000FFF708FC744F05460E46FFF78DFCFFF7E9
:1016300081FC4FF0FF334FF0FF327048C7E90223BF
:1016400097F82030F3B9BA6940F2F964D7E9043168
:101650001B3341F100019B1802F5DF6241F10001EB
:10166000B2FBF4F29B1841F100019D4276EB0103BD
:1016700008D307210078FFF70BFD40F23921012044
:1016800000F0E2FB90F80080B8F1200F02D140F2A8
:101690004321F4E75A4C202394F840A0037084F8C7
:1016A0005230BAF1200F4FF000033B601ED0DFF83C
:1016B0006491182202FB0A92937D012B16D1137DAF
:1016C000012B78D0FEF796FF002874D101F0C2FC00
:1016D00045194FF0180346F1000603FB0A93D3E9BE
:1016E0000212A942B24128BFC3E90256DFF8249191
:1016F000444E94F84050202D12D0FFF79BFB20223F
:101700004FF0180E0EFB0593D3E902C3604571EB51
:10171000030352D2202A03D020210420FFF742FDE8
:101720000EB1AFF30080FFF785FB94F84050202DF9
:101730004BD1FFF76DFDFFF781FDFFF7FBFB84F851
:101740005250FFF7C7FC00234FF0FF32CDE90233C0
:101750004FF0FF33CDE90023022368468DF80830AF
:10176000FFF7CAFC14F81830022B03D141460620BB
:10177000FFF798FCFF2384F8433094F84130202B86
:1017800003D0214B187800F051FC204994F86030C8
:10179000D1F8482722F001021343C1F8483794F8E2
:1017A00054302BB11A4B0122DA61002384F85430F3
:1017B00004B0BDE8F08729358BE704EB45032A46E2
:1017C0005B78202BA8D01D469CE701222B46FFF713
:1017D00041FE94F8402020B920210420FFF7E2FCCC
:1017E00087E7002384F85220CDE90233D7E90423A8
:1017F000CDE900230123B0E72018002018180020AD
:1018000050180020000000004818002000200E5052
:1018100000E0105018150020F8B50D46044601F000
:101820001FFC0023094911F81320D8B24AB9182225
:10183000074E5A43B718B45001227D6001F81320B7
:10184000F8BD0133202BEED11846F9E750180020DF
:10185000181500201F2809D80549002311F8102069
:10186000012A03D101F8103010467047002070475C
:1018700050180020014BD3E90401704720180020C4
:101880007A4B2DE9F04F044658688DB08A46C0F374
:10189000080098B11038FFF7E9FB10F0FF070ED1F0
:1018A000734B1B78202B04D14FF48661012000F08C
:1018B000CBFA0F7857B140F23341F7E708279AF88F
:1018C0000030012B02D940F23741EFE7694E26B1D3
:1018D000002140F23A40AFF3008001234FF0000BAB
:1018E000654D36B1002140F243400193AFF30080D3
:1018F000019B1846FFF70CFC85F843B026B1002188
:1019000040F24740AFF300800DF11009FFF792FA63
:1019100052464B4601F020FE26B1002140F24D40D8
:10192000AFF30080554B0BB1AFF30080EFF310889D
:10193000434672B695F8431001F0FF020029D0D15A
:1019400015F814300192013B012B08D94046FFF7EE
:10195000DFFB019A164630460DB0BDE8F08F0DF161
:101960000F020DF10E014846FFF7FEFC064640B996
:1019700021460420FFF796FB40460126FFF76CFC4A
:10198000E9E73F4B4FF0180C9DF80EA00CFB043C10
:1019900099E80F000CF1080C8CE80F00002F3ED0E6
:1019A000BAF1200F3BD1324B1B78202B37D1354B6E
:1019B0000BB1AFF30080FFF73DFA049A10F11C0C55
:1019C00041F100036245059A9A410AD395F85220E5
:1019D000202A0ED02C4AD2E904E2E64572EB03033A
:1019E00007D221460420FFF75DFB4046FFF734FC99
:1019F000B1E723460222FFF72DFD0028F1D0002396
:101A000008A885F85240CDE90A331F4BD3E90423D7
:101A1000CDE9082301238DF82830FFF76DFB9DF8F1
:101A20000E109DF80F20914218D00520FFF7BAFB49
:101A300005EB4403BAF1200F587017BF9DF80E3024
:101A400085F8404005EB43035C70032305F8143030
:101A5000002FCAD1FF2385F84330C6E7202916BFDF
:101A600005EB410195F840004878E1E700ED00E022
:101A7000181800200000000050180020000000008E
:101A800018150020000000002018002070B586B056
:101A9000072873D8DFE800F004927D727272729E9C
:101AA0004D4C4E4DD4E91223B3F1FF3F08BFB2F1C4
:101AB000FF3F05D101F0C8FAD5E90423C4E9122398
:101AC000474E3378202B2FD1464BD3F8482702F0CE
:101AD000010284F86020D3F8482742F00102C3F8DD
:101AE000482794F84030202B04D14FF4F77101209F
:101AF00000F0AAF904EB4302527884F84020FF2258
:101B000084F8432002223370684604F8132000232F
:101B10004FF0FF3285F82030CDE902334FF0FF332C
:101B2000CDE90023FFF7E8FA2B7F012B28D0FEF741
:101B300061FD014620BB94F861300133DBB2312BEB
:101B400084F8613002D940F21E51D0E7182268466D
:101B500001F050FD4FF47A73694630780193FFF736
:101B60008FFE10B940F22251C1E795F820400123C1
:101B700085F82030FFF752FD85F8204006B070BD93
:101B80000021307884F8611006B0BDE87040FFF79E
:101B90007FBA114C94F850302BB1FFF783FB002330
:101BA00084F85030EAE74FF0FF310C4B4FF0FF3034
:101BB000C3E9020105210A4B1878E5E701230A4A27
:101BC000C2F81835044A82F8583006B0BDE87040B3
:101BD0000EF0BABB0421EEE75018002020180020B8
:101BE0001818002000200E5000B00450134B10B500
:101BF0001A78202A04D140F2DD51012000F024F9A6
:101C00000F49D1E90243B3F1FF3F08BFB4F1FF3FF1
:101C100002D040F2DE51F0E718240A4B04FB0233F5
:101C2000D3E90223BDE8104082184FF0020043F1CF
:101C30000003C1E90223FFF70BB900BF1818002009
:101C40002018002018150020F8B51E4B1D78202DF7
:101C500004D140F2E751012000F0F6F81A491827A4
:101C60001A4A91F84030202B29D007FB0324667DC7
:101C7000864204D891F8540028B100201EE001EB00
:101C800043035B78EFE707FB0522114BD2E90251D2
:101C90001E6813695B19D4E9022441F1000113F1B4
:101CA000290541F10001AA4274EB010106D3D31AC0
:101CB00006F11902293B9A4200D8981BF8BD4FF053
:101CC000FF30FBE7181800205018002018150020DE
:101CD000201800202DE9F743DFF8C090054699F859
:101CE0000030202B04D140F21561012000F0ACF847
:101CF000182849D9264C00234FF0FF36A7693A1817
:101D000043EB0300964283413ED3224E96F8543073
:101D10007BB94FF02008A26161770DF1070296F8B8
:101D2000401004F110008DF80780FFF7F5FA10B9A4
:101D3000A761022029E00220FFF7DCF84FF0FF3214
:101D40004FF0FF3399F80070C4E902239DF8072093
:101D5000202A16D041460520FFF724FA06EB470754
:101D60007870206828442060FF2386F843309DF86F
:101D70000730202B03D0084B187800F057F90020CB
:101D800003E096F84000E9E7012003B0BDE8F083E6
:101D90002018002050180020481800201818002093
:101DA00008B50B4B0BB1AFF30080EFF3108072B6A8
:101DB000084B1B78202B4FF0010315BF064A074A3A
:101DC00082F85430D361BDE80840FFF7A1B900BFE5
:101DD00000000000181800205018002000E01050EB
:101DE000BFF34F8F0549064BCA6802F4E062134304
:101DF000CB60BFF34F8F00BFFDE700BF00ED00E0F9
:101E00000400FA05094B01221B685A604FF0FF32AB
:101E1000C3F808238022064BC3F88820BFF34F8FF6
:101E2000BFF36F8FC3F88821704700BF34190020BB
:101E300000E100E008B572B6024B5B6803B1984759
:101E4000FFF7CEFFC81800201FB572B6134B5D68B0
:101E50008DB9FFF7C5FFB4FBF6F4D3B20132002C05
:101E6000F9D103F110026A4402F80C4C0A2233B98A
:101E700001A8A847EDE7044600220A26EDE7013B4A
:101E8000DBB203F110040DEB0406B0FBF2F402FB2D
:101E90001400303006F80C0C2046E8E7C818002083
:101EA000F8B5244E05460C4617463378002B3ED134
:101EB00000F024F900F0FEF818B19A211120FFF784
:101EC000C3FF01F0C0F81C4B77600127002D08BF4D
:101ED0001D461A4B34814FF48062C3F8A470184B2E
:101EE000C3F89020BFF34F8FBFF36F8F2846C3F81E
:101EF0009021FFF787FF01F0AFF80546A8B9FFF77B
:101F000053FB01F0ABF801F04DFA002C0BDB04F0B1
:101F10001F036409A4009F4004F1604404F5614478
:101F2000C4F880712760012333702846F8BD4FF054
:101F3000FF35FAE7C81800202A6A040000A00850FC
:101F400000E100E0074BB3F90830002B09DB5A0928
:101F5000012103F01F03403201FA03F3024941F863
:101F600022307047C818002000E100E0014B1878CB
:101F7000704700BFC81800201B4B4FF4000270B51B
:101F8000C3F89820BFF34F8FBFF36F8F174D002119
:101F9000174CC5F80011C3F898212669236906F08B
:101FA000100643F0100323610123C5F804332B60AE
:101FB000D5F80031A3B11EB9236923F010032361C2
:101FC0000A4B0122D3F808055A60C3F808230022FF
:101FD000C3F800214FF40002034BC3F8982170BDF1
:101FE00001F004FBE4E700BF00E100E000700D50E9
:101FF00000ED00E002460C49052038B5431ED8B27A
:10200000FF2803D148216920FFF71EFF01EBC00321
:102010001D7905F0FF04002DF0D141F83020012298
:102020005C719C711A7138BDF8180020042808B53D
:1020300003D958216920FFF707FF094B03EBC000C4
:102040000379012B01D05921F4E7437982790133D7
:10205000DBB29A4218BF4371BDE80840FFF772BF78
:10206000F818002070B50625114C0026013D15F02A
:10207000FF0500D170BD94F8281004EBC1031A7954
:10208000012A09D158799A79904205D05A79D2B269
:102090009A7154F83130984794F828300133DBB204
:1020A000042B94BF84F8283084F82860DEE700BF52
:1020B000F8180020044B1A681C2A03BF5868B0FAAD
:1020C00080F040090020704724190020044B1A6852
:1020D000292A03BF5868B0FA80F0400900207047F1
:1020E00024190020044B1A68272A03BF5868B0FA45
:1020F00080F04009002070472419002008B5104BDB
:102100001049D3F840230A60D3F844334B60FFF7FB
:10211000DDFF10B9FFF7E6FF48B10B4BC1E9023311
:1021200003F580530B61A3F5E0434B6108BD074BFA
:10213000C1E9023303F580530B61A3F58043F4E753
:1021400000C0FF002419002000A0045000600450CB
:10215000014B1B681B68184748050020014B1B6892
:102160005B68184748050020014B1B689B681847AF
:1021700048050020014B1B681B69184748050020D3
:1021800038B5214C0420FFF75FFD04212568854206
:1021900028BF05462846FFF79DFD30B10138C0B283
:1021A000012820D94FF4A27108E02368E068AB420F
:1021B0000DD1FFF71BFD20B94FF492716B20FFF793
:1021C00043FEE268236822611344E36038BD05449E
:1021D00060890123281AE5602375FFF707FD68B9B8
:1021E0004FF49771EAE70123E06823756389C01A09
:1021F000FFF7FCFC10B94FF49E71DFE76289E368DA
:102200009B1A2361E2E700BF4019002008B50C4B80
:102210001A7802F0FF0312B15A1E1A4203D0E021CD
:102220006B20FFF711FE19B1034207D1E521F7E753
:1022300023EA00039B0601D1E921F1E708BD00BFB5
:102240004C05002008B501220C4B02211A764FF4F0
:10225000827293F830001A841A68DA615A689A62B6
:10226000074A117003F11801FFF70AFB20B940F289
:1022700005116B20FFF7E8FD08BD00BF40190020E5
:102280004C05002070B5EFF3108572B6264C002384
:1022900094F8316084F83130012E06D0022E1DD022
:1022A000002E3BD185F3108870BD85F3108894F81B
:1022B000323003F0FF0123B140F251116B20FFF7E0
:1022C000C3FD1420FFF7A2FF184B84F832601B787F
:1022D000012BE9D1BDE87040FFF7B4BF94F832207C
:1022E00012B94FF4B171E9E7104984F832300B7834
:1022F000023BDBB21E2B0ED8012202FA03F30C4A7A
:102300001342CFD144F20402134204D020230B70B5
:10231000FFF784F9C6E74FF4BF71CFE785F3108864
:102320004FF4D271CAE700BF401900204C050020CD
:102330004100004070B5144C94F8335025B140F280
:1023400087216B20FFF780FD104B01264FF4C85208
:1023500084F832501E700E4B0E48C4E900230E4B19
:10236000A360FFF747FE294684F834000B48FFF7C7
:1023700053FA202884F8300002D140F29621E0E799
:1023800084F8336070BD00BF401900204C05002068
:10239000FF3F420F852200000500B700092500001D
:1023A00008B5104B93F8332022B940F2F6216B2088
:1023B000FFF74AFDEFF3108172B693F8312022B196
:1023C000012A0DD040F20631F1E7022283F83120D4
:1023D00001B962B693F83400BDE80840FFF726BEA5
:1023E0000022F3E7401900200B4B93F8333010B56F
:1023F00023B940F215316B20FFF726FDEFF310846F
:1024000072B6064B1A78102A03D108221A70FFF709
:1024100005F904B962B610BD401900204C05002032
:10242000154B70B51B78042B24D1144E337D1BB98A
:1024300073893068C01A70BD01F061F810F11E0494
:1024400041F10005FFF716FA336900221B1841F12C
:1024500000019C4275EB01000CD2181B4FF0FF33BA
:1024600061EB0501834272EB0103E4D2A7216B20EB
:10247000FFF7EAFC0020DEE74C05002040190020B1
:1024800038B5144C94F8333023B940F2CB216B208B
:10249000FFF7DAFCEFF3108572B694F8313023B110
:1024A000022B0DD040F2DE21F1E7012384F8313018
:1024B00005B962B694F83400BDE83840FFF7B6BD00
:1024C000054B00221B7884F83120042BF0D134F026
:1024D000A3F9EDE7401900204C05002008B5094B91
:1024E00019781029CAB207D0202A05D0042A04D1AD
:1024F00010221A7034F0A0F908BD40F2C3116B200D
:10250000FFF7A2FC4C05002070B50C4600F0F7FF69
:10251000062C48D8DFE804F00452522823655E00F8
:1025200001210220FFF772FE304B314A93F832103E
:1025300079B1042111701A68DA6000221A7593F8D3
:102540003130022B01D034F067F9BDE87040FFF75D
:1025500017BE20231370BDE87040FFF75FB840F24C
:102560000F216B20FFF770FC204E96F83230D3B16C
:102570001F4B1B78042B17D100F0C1FF05460C46FA
:10258000FFF778F9327D012A0BD13269121841F137
:102590000003954274EB030303D3BDE87040FFF7DB
:1025A0009DBF11F0D9F870BD124B4FF48062C3F893
:1025B0009020BFF34F8FBFF36F8FF4E7012102200C
:1025C000FFF724FE094B93F8323033B1BDE8704079
:1025D000FFF738BE01212820F2E7054B01221A70CF
:1025E000E1E7024B1B7D012BAFD1D6E7401900205C
:1025F0004C05002000E100E081F0004102E000BF56
:1026000083F0004330B54FEA41044FEA430594EAB2
:10261000050F08BF90EA020F1FBF54EA000C55EAED
:10262000020C7FEA645C7FEA655C00F0E2804FEABE
:102630005454D4EB5555B8BF6D420CDD2C4480EAA0
:10264000020281EA030382EA000083EA010180EAD0
:10265000020281EA0303362D88BF30BD11F0004F1E
:102660004FEA01314FF4801C4CEA113102D0404254
:1026700061EB410113F0004F4FEA03334CEA13338F
:1026800002D0524263EB430394EA050F00F0A780A7
:10269000A4F10104D5F1200E0DDB02FA0EFC22FAA2
:1026A00005F2801841F1000103FA0EF2801843FA96
:1026B00005F359410EE0A5F120050EF1200E012A87
:1026C00003FA0EFC28BF4CF0020C43FA05F3C018C5
:1026D00051EBE37101F0004507D54FF0000EDCF13E
:1026E000000C7EEB00006EEB0101B1F5801F1BD3E7
:1026F000B1F5001F0CD349085FEA30004FEA3C0CEB
:1027000004F101044FEA445212F5800F80F09A80E0
:10271000BCF1004F08BF5FEA500C50F1000041EBE4
:10272000045141EA050130BD5FEA4C0C404141EBE8
:102730000101013C28BFB1F5801FE9D291F0000FE3
:1027400004BF01460020B1FA81F308BF2033A3F192
:102750000B03B3F120020CDA0C3208DD02F1140C89
:10276000C2F10C0201FA0CF021FA02F10CE002F1C4
:102770001402D8BFC2F1200C01FA02F120FA0CFCBD
:10278000DCBF41EA0C019040E41AA2BF01EB045106
:10279000294330BD6FEA04041F3C1CDA0C340EDC04
:1027A00004F11404C4F1200220FA04F001FA02F347
:1027B00040EA030021FA04F345EA030130BDC4F105
:1027C0000C04C4F1200220FA02F001FA04F340EAFA
:1027D0000300294630BD21FA04F0294630BD94F0AB
:1027E000000F83F4801306BF81F480110134013D92
:1027F0004EE77FEA645C18BF7FEA655C29D094EA03
:10280000050F08BF90EA020F05D054EA000C04BF80
:102810001946104630BD91EA030F1EBF002100206B
:1028200030BD5FEA545C05D14000494128BF41F00A
:10283000004130BD14F580043CBF01F5801130BD6E
:1028400001F0004545F0FE4141F470014FF00000F9
:1028500030BD7FEA645C1ABF194610467FEA655CAA
:102860001CBF0B46024650EA013406BF52EA03354C
:1028700091EA030F41F4002130BD00BF90F0000F3A
:1028800004BF0021704730B54FF4806404F1320476
:102890004FF000054FF0000150E700BF90F0000F2F
:1028A00004BF0021704730B54FF4806404F1320456
:1028B00010F0004548BF40424FF000013EE700BF26
:1028C00042004FEAE2014FEA31014FEA02701FBFB6
:1028D00012F07F4393F07F4F81F06051704732F0E8
:1028E0007F4208BF704793F07F4F04BF41F400213F
:1028F000704730B54FF4607401F0004521F000419D
:102900001CE700BF50EA010208BF704730B54FF026
:1029100000050AE050EA010208BF704730B511F027
:10292000004502D5404261EB41014FF4806404F15F
:1029300032045FEA915C3FF4D8AE4FF003025FEAE5
:10294000DC0C18BF03325FEADC0C18BF033202EB69
:10295000DC02C2F1200300FA03FC20FA02F001FAC3
:1029600003FE40EA0E0021FA02F11444BDE600BF66
:1029700070B54FF0FF0C4CF4E06C1CEA11541DBF15
:102980001CEA135594EA0C0F95EA0C0F00F0DEF8E0
:102990002C4481EA030621EA4C5123EA4C5350EAC5
:1029A000013518BF52EA033541F4801143F4801316
:1029B00038D0A0FB02CE4FF00005E1FB02E506F0A7
:1029C0000042E0FB03E54FF00006E1FB03569CF0FC
:1029D000000F18BF4EF0010EA4F1FF04B6F5007F02
:1029E00064F5407404D25FEA4E0E6D4146EB060674
:1029F00042EAC62141EA55514FEAC52040EA5E50FD
:102A00004FEACE2EB4F1FD0C88BFBCF5E06F1ED8A6
:102A1000BEF1004F08BF5FEA500E50F1000041EBDD
:102A2000045170BD06F0004646EA010140EA02008A
:102A300081EA0301B4EB5C04C2BFD4EB0C0541EAAC
:102A4000045170BD41F480114FF0000E013C00F3C1
:102A5000AB8014F1360FDEBF002001F0004170BDE5
:102A6000C4F10004203C35DA0C341BDC04F11404FE
:102A7000C4F1200500FA05F320FA04F001FA05F28A
:102A800040EA020001F0004221F0004110EBD37057
:102A900021FA04F642EB06015EEA430E08BF20EA83
:102AA000D37070BDC4F10C04C4F1200500FA04F326
:102AB00020FA05F001FA04F240EA020001F00041B8
:102AC00010EBD37041F100015EEA430E08BF20EA2B
:102AD000D37070BDC4F1200500FA05F24EEA020E73
:102AE00020FA04F301FA05F243EA020321FA04F0A2
:102AF00001F0004121FA04F220EA020000EBD37059
:102B00005EEA430E08BF20EAD37070BD94F0000F58
:102B10000FD101F00046400041EB010111F4801F8C
:102B200008BF013CF7D041EA060195F0000F18BF3D
:102B3000704703F00046520043EB030313F4801F79
:102B400008BF013DF7D043EA0603704794EA0C0F33
:102B50000CEA135518BF95EA0C0F0CD050EA410649
:102B600018BF52EA4306D1D181EA030101F00041C6
:102B70004FF0000070BD50EA410606BF10461946EE
:102B800052EA430619D094EA0C0F02D150EA0136FA
:102B900013D195EA0C0F05D152EA03361CBF10463B
:102BA00019460AD181EA030101F0004141F0FE41DA
:102BB00041F470014FF0000070BD41F0FE4141F45E
:102BC000780170BD70B54FF0FF0C4CF4E06C1CEA5E
:102BD00011541DBF1CEA135594EA0C0F95EA0C0F13
:102BE00000F0A7F8A4EB050481EA030E52EA0335CE
:102BF0004FEA013100F088804FEA03334FF08055EF
:102C000045EA131343EA12634FEA022245EA11151B
:102C100045EA10654FEA00260EF000419D4208BFCC
:102C2000964244F1FD0404F5407402D25B084FEA79
:102C30003202B61A65EB03055B084FEA32024FF425
:102C400080104FF4002CB6EB020E75EB030E22BF82
:102C5000B61A754640EA0C005B084FEA3202B6EB42
:102C6000020E75EB030E22BFB61A754640EA5C00F1
:102C70005B084FEA3202B6EB020E75EB030E22BF81
:102C8000B61A754640EA9C005B084FEA3202B6EB82
:102C9000020E75EB030E22BFB61A754640EADC0041
:102CA00055EA060E18D04FEA051545EA16754FEAA3
:102CB00006164FEAC30343EA52734FEAC2025FEAC1
:102CC0001C1CC0D111F4801F0BD141EA00014FF050
:102CD00000004FF0004CB6E711F4801F04BF014321
:102CE0000020B4F1FD0C88BFBCF5E06F3FF6AFAE3D
:102CF000B5EB030C04BFB6EB020C5FEA500C50F1CD
:102D0000000041EB045170BD0EF0004E4EEA11314F
:102D100014EB5C04C2BFD4EB0C0541EA045170BD56
:102D200041F480114FF0000E013C90E645EA060E9A
:102D30008DE60CEA135594EA0C0F08BF95EA0C0FC8
:102D40003FF43BAF94EA0C0F0AD150EA01347FF410
:102D500034AF95EA0C0F7FF425AF104619462CE7E7
:102D600095EA0C0F06D152EA03353FF4FDAE10464A
:102D7000194622E750EA410618BF52EA43067FF49B
:102D8000C5AE50EA41047FF40DAF52EA43057FF42B
:102D9000EBAE12E74FF0FF3C06E000BF4FF0010C36
:102DA00002E000BF4FF0010C4DF804CD4FEA410C9A
:102DB0007FEA6C5C4FEA430C18BF7FEA6C5C1BD067
:102DC00001B050EA410C0CBF52EA430C91EA030FE8
:102DD00002BF90EA020F0020704710F1000F91EA45
:102DE000030F58BF994208BF90422CBFD8176FEA13
:102DF000E37040F0010070474FEA410C7FEA6C5CE1
:102E000002D150EA013C07D14FEA430C7FEA6C5CE7
:102E1000D6D152EA033CD3D05DF8040B704700BF13
:102E20008446104662468C461946634600E000BF61
:102E300001B5FFF7B7FF002848BF10F1000F01BD33
:102E40004DF808EDFFF7F4FF0CBF012000205DF8FE
:102E500008FB00BF4DF808EDFFF7EAFF34BF012083
:102E600000205DF808FB00BF4DF808EDFFF7E0FF1C
:102E700094BF012000205DF808FB00BF4DF808ED6D
:102E8000FFF7CEFF94BF012000205DF808FB00BFD4
:102E90004DF808EDFFF7C4FF34BF012000205DF8B6
:102EA00008FB00BF7BB972B90029BEBF00204FF0FC
:102EB000004106E008BF00281CBF6FF000414FF042
:102EC000FF3000F057B8ADF1080C6DE904CE0029D1
:102ED00009DB002B1ADB00F0C9FBDDF804E0DDE9BB
:102EE000022304B07047404261EB4101002B1BDB21
:102EF00000F0BCFBDDF804E0DDE9022304B0404251
:102F000061EB4101524263EB43037047524263EB72
:102F1000430300F0ABFBDDF804E0DDE9022304B07D
:102F2000404261EB41017047524263EB430300F0C2
:102F30009DFBDDF804E0DDE9022304B0524263EBBF
:102F40004303704753B94AB9002908BF00281CBF82
:102F50004FF0FF314FF0FF3000F00CB8ADF1080C2E
:102F60006DE904CE00F082FBDDF804E0DDE9022328
:102F700004B07047704700BF08B5FFF7BFF8BDE861
:102F8000084000F060B870B5841A0E46154659B274
:102F900004F3070460B2FDF7EFFA00233070284411
:102FA000737040B270BD37B5A0F10B041546E0B2A6
:102FB0000F2803D94F216420FEF746FF0DF10303CC
:102FC0000A4601460420FDF7A1FA034608B158213C
:102FD000F1E704EB840401A99DF9030004F66514EC
:102FE000A2B2FDF789FA9DF804302B709DF80530E8
:102FF0006B7003B030BD0023036070477047002042
:1030000070474FF0FF3070474FF0FF307047704708
:10301000002070474FF0FF307047002070470020BD
:1030200070470023037070470022FFF7ACBF0020F9
:1030300070474FF0FF3070474FF0FF3070474FF050
:10304000FF30704770477047FDF790BBFDF7A2BB9C
:10305000FDF7E8BBFDF784BBFDF7BCBCFDF70CBC7E
:10306000FDF7ACBC08B5FDF775FB002008BD38B511
:10307000054691F827000C46FEF7ECFB18B9E8214D
:103080006A20FEF7E1FE002309212846A38484F884
:103090002630236A984718B103780BB1EC21EFE78B
:1030A00038BD426808B5034611441A78A1F196006C
:1030B0005960012A06D1FEF799FD40B9CC216A205A
:1030C000FEF7C2FEFEF792FD08B9D121F7E708BD71
:1030D000F8B504460E4619B9012384F829303BE0BF
:1030E0000D78032DF8D8DFE805F03902121548688D
:1030F000C72802D800252846F8BD0421FEF7EAFDBE
:103100000028F7D171682046FFF7CBFFF3E7FDF702
:10311000ADFDF0E790F82470F7B94D682846FDF74B
:1031200079FD0028D8D02B78D3B9012222702B79D1
:10313000003B18BF012363726B79002B0CBF022385
:1031400004232372AB68A5336360EB6884F8252001
:103150002361032384F82630FDF788FD0225CAE7A2
:1031600094F82630052B04D04FF4C8716A20FEF77E
:103170006BFE27702B7994F82700003B18BF0123C2
:1031800063726B79002B0CBF022304232372EB685C
:10319000A968A5336360D4E906325B1842EBE1729B
:1031A0002146C4E90432042384F82630FEF768FB84
:1031B0000028D1D14FF4C971D8E738B5044620B9F9
:1031C0004FF4D5716A20FEF73FFE90F8285007298A
:1031D00000F2D980DFE801F0043333636D77907E2D
:1031E00090F82630033B012B02D940F2B511E9E7F4
:1031F000052390F8241080F82630002380F8293029
:10320000C9B9FFF74EFF2378012B0FD1FEF732FB30
:10321000C4E90601236A0021284698470146204652
:10322000FFF756FF022840F0B18038BDD4E90423EF
:10323000C4E90623EEE7BDE83840FDF717BD90F876
:103240002630DA1E012A02D94FF4EB71BAE790F862
:1032500024202AB121462846BDE83840FFF707BFA1
:10326000042B0CBF02230123012980F82630036AB6
:103270000AD10521284698470028D6D00378002B8C
:10328000D3D040F2EB119DE706212846984700284D
:10329000CBD00378002BC8D04FF4F87192E790F8A8
:1032A0002630052B02D040F2F7118BE7036A02218A
:1032B000B2E790F82630052B02D040F2FD1181E7ED
:1032C000036A0121A8E790F82630052BB3D040F21D
:1032D000032177E790F82630052B02D04FF40271D6
:1032E00070E7036A0A212846984701462046FFF7FF
:1032F000EFFE40F20B2165E790F82630052B07D052
:1033000090F825200AB1032B02D040F20F2159E793
:1033100094F82420002A9DD194F8293093B10223F7
:103320000821284684F8292084F82630236A984703
:1033300000283FF47AAF0378002B3FF476AF40F2D9
:103340001B213FE794F8252062B1214694F827001D
:1033500084F82530FEF794FA00287FF466AF4FF426
:1033600008712FE702230721284684F82630236AB4
:10337000984700283FF459AF0378002B3FF455AF2E
:1033800040F227211EE74FF40B711BE720B1012803
:1033900005D1236A04213FE7236A03213CE740F279
:1033A0003D210FE770B50024FDF7ACFC054626462D
:1033B000E0B2854200D870BDFDF7AAFC01348684D6
:1033C00080F82660F4E7F8B504460D460027FDF7BF
:1033D00099FC0646F8B2864204D8082D0CD96FF045
:1033E000150008E0FDF794FC90F826300137002B1B
:1033F000F0D04FF0FF30F8BD2CB129462046BDE893
:10340000F840FDF791BC21462046F8E738B505465F
:10341000FDF77EFC014688B190F824408CB990F805
:10342000263073B1013B012B04D82846FFF71FFE5D
:10343000204638BD012380F82430F9E76FF0010001
:10344000F7E76FF02200F4E770B50D46FDF760FC7A
:103450000446002848D090F82660731E012B49D8F6
:10346000002D44D02846FDF7D5FB00283FD02B780F
:10347000FBB9012323702B79003B18BF0123637232
:103480006B79002B0CBF022304232372AB68A53396
:103490006360EB6823610323214694F8270084F8D6
:1034A0002630FEF7EDF940BB40F2BD216A20FEF761
:1034B000CBFC022E1ED1002323702B79003B18BFBA
:1034C000012363726B79002B18BF04262672EB6808
:1034D000A968A5336360D4E906325B1842EBE17258
:1034E000C4E904320423D7E76FF0010070BD6FF028
:1034F0001500FBE76FF02200F8E70020F6E7FDF784
:1035000099BC08B50020FDF785FD0120FDF782FD7F
:103510000220BDE80840FDF77DBD70B58368D0E9A5
:103520000052D1E900465B1942F100029C4276EB61
:1035300002030DD30B7B012B0CD0037B012B09D194
:10354000641BFFF787FD8442B4BF0020012070BDDB
:103550000020FCE70120FAE72DE9F843B2F80880E3
:103560001C4692F80090054698FA98F80F461646C1
:1035700000211022184600F03DF8A4F80C8084F8D1
:103580000E90B9F1000F13D115F11C00D6E90423F8
:1035900047F10001824273EB010133BF4FF47A73AC
:1035A000C4E900237368C4E90057A360BDE8F88349
:1035B000224628463946FDF789FE73682A46A360ED
:1035C0003B46C4E9000121463069FDF7F9FE0028B9
:1035D000ECD1C4E90057E9E7FEF744BD002070478D
:1035E00000207047002070470020704720BF7047C0
:1035F00020BF704770B5C9B20446A30711D141EA94
:103600000123960843EA034522F0030323449C4226
:103610000DD16FF0030404FB06221A44934209D132
:1036200070BD002AFCD0013A04F8011BE5E744F81C
:10363000045BECE703F8011BF0E700280CBF6FF018
:1036400015000020704700207047072303700020FA
:103650007047002070470020704710B50446FEF701
:10366000DFFEA04294BF0020012010BD2DE9F047ED
:1036700086468C460846089E154674461946002B19
:1036800040F0C1808542B2FA82F245D94AB1C2F116
:10369000200300FA02FC954094402EFA03F343EA1B
:1036A0000C0C4FEA154EA8B2230CBCFBFEF80EFB27
:1036B00018CC08FB00F943EA0C43994528D9EB18CC
:1036C00008F1FF3704D2994502D9A8F102072B442B
:1036D000A3EB0903A4B2B3FBFEFC0EFB1C330CFBF3
:1036E00000F044EA0344A04214D92C190CF1FF3332
:1036F00004D2A04202D9ACF102032C44241A43EABA
:1037000007401EB1D440002334607360BDE8F087E9
:103710004746DDE76346F1E792BB431B01214FEAD1
:10372000154EAFB2200CB3FBFEFC0EFB1C330CFBA2
:1037300007F840EA0343984561D9EB180CF1FF30D4
:1037400004D2984502D9ACF102002B44A3EB080344
:10375000A4B2B3FBFEFC0EFB1C330CFB07F744EAE0
:103760000344A7424DD92C190CF1FF3304D2A742D0
:1037700002D9ACF102032C44E41B43EA0040C0E749
:10378000C2F120039540944020FA03F12EFA03F38E
:103790004FEA154E9040AFB20343B1FBFEFC0EFB67
:1037A0001C10190C0CFB07F841EA0041884522D98E
:1037B00069180CF1FF3004D2884502D9ACF102003F
:1037C0002944A1EB08019BB2B1FBFEFC0EFB1C11CE
:1037D0000CFB07F743EA01439F420ED9EB180CF1AB
:1037E000FF3104D29F4202D9ACF102012B44DB1B12
:1037F00041EA004193E76046E3E76146F7E7604648
:10380000A4E76346B8E7834206D916B90021084603
:103810007CE7C6E900E0F9E7B3FA83F78FB98342A2
:1038200001D3724508D8BEEB020460EB030301200C
:103830009C461EB9002169E73846FAE7C6E9004C04
:10384000F8E7C7F1200CBB400EFA07F522FA0CF49A
:103850002EFA0CF1BA401C4320FA0CF3B8404FEAA0
:10386000144901431FFA84FEB3FBF9F809FB183031
:103870000B0C08FB0EFA43EA00439A4540D9E318C3
:1038800008F1FF3004D29A4502D9A8F1020023447E
:10389000A3EB0A0389B2B3FBF9F809FB183308FB61
:1038A0000EFE41EA03418E452CD9611808F1FF3321
:1038B00004D28E4502D9A8F10203214443EA004014
:1038C000A1EB0E01A0FB02984145CE46434602D330
:1038D00006D14D4504D20138B9EB020E68EB040362
:1038E000002EA7D0B5EB0E0261EB030101FA0CFC30
:1038F00022FA07F3F9404CEA0303C6E9003199E7DD
:103900004046C5E74346D9E72DE9F04F82461646C3
:103910001C4600259FB00391307810B9284600F06E
:10392000A7BD252809D00399D0470028C0F2A0855B
:10393000731C01350593059EEEE71822002110A89F
:1039400037F047FB7378252B7ED0002398469E46A0
:103950009C461F46701C014610F8012B2B2A00F0D4
:10396000A68000F29D80202A00F0A480232A00F087
:10397000A4802BB19DF8483043F040038DF84830C7
:10398000B8F1000F05D09DF8483043F020038DF8C2
:103990004830BEF1000F05D09DF8483043F01003C9
:1039A0008DF84830BCF1000F05D09DF8483043F049
:1039B00008038DF848302FB19DF8483043F00403D8
:1039C0008DF848309DF8483003F04400442803D176
:1039D0006FF386138DF848309DF848302A2A43F05B
:1039E00080038DF8483040F084809DF849204B1CBE
:1039F00042F001028DF849201A782E2A0CBF0121CD
:103A000000219DF8492061F341028DF849207CD1C5
:103A10005A782A2A72D000224FF00A0C0133194634
:103A200011F8010BA0F13007092F40F2B3809DF887
:103A300048101492C1F3400040EAD2700A4660F385
:103A400041028DF8482060E08DF84B30B31C05939F
:103A50009DF849309DF84A20DF0702F0070040F149
:103A6000548154F8041B0029049108DA9DF8481089
:103A700041F004018DF84810049949420491590716
:103A800040F14B8154F8047B002F80F24A819DF86D
:103A900049306FF341038DF849304FF0FF3740E173
:103AA0002D2A0DD0302A7FF464AF012353E74FF065
:103AB000010C50E74FF0010E4DE74FF001084AE7C7
:103AC000012748E703460EFB0272303A184610F809
:103AD000017BA7F1300CBCF1090FF3D999428BD0CF
:103AE0009DF848101392D20F62F341018DF84810EF
:103AF00082E70B4600224FF00A0EE7E79DF84920C7
:103B0000023342F004028DF849201A786C2A61D001
:103B100045D8682A4BD06A2A65D04C2A6BD013F856
:103B2000012B782A05938DF84B2000F2AD806D2A89
:103B30006ED8692A00F2A880572A00F28880412AAC
:103B400004D0A2F14503022B00F29E8004219DF8CF
:103B50004A3002F0DF02A2F1410961F30203D9F118
:103B600000029DF8491042EB090262F3C7110A06F0
:103B70008DF84A308DF84910CBB200F1C48003F0C3
:103B80007802182A40F0AE806FF3C6038DF84930F2
:103B900000239DE00CFB02020B46303A3FE7742AFB
:103BA00025D07A2ABBD106219DF849200CE05A780D
:103BB000682A9DF8492006D1012161F3C6028DF8DB
:103BC00049200233ABE7022161F3C6028DF8492098
:103BD0000133A4E75A786C2A9DF8492001D10421C9
:103BE000EBE70321F0E705219DF84920ECE70721E9
:103BF0009DF84920E8E7BDF8482022F4F04222F081
:103C0000020242F4804242F00202ADF84820DFE7AF
:103C10006E3AD3B201229A4040F282431A429DF892
:103C2000493038D112F0240F60D1D1072CD50321AF
:103C30009DF84A2003F07803A3F1400861F30202E3
:103C4000D8F100038DF84A2043EB080340E001203F
:103C5000A2F15801C9B200FA01F111F4624F7FF4E8
:103C600075AF40F6010319429DF8493019D111F49E
:103C7000043F09D09DF84A2060F3020203F0780364
:103C8000402B8DF84A2083D19DF8483043F0010342
:103C90008DF848307CE702219DF84A2061F302024A
:103CA000ECE702209DF84A1003F0780360F302016C
:103CB000402B8DF84A1002BF9DF8481041F00101D9
:103CC0008DF84810632A7FF463AF003B18BF0123CF
:103CD0009DF84820C2F340010B4363F341028DF885
:103CE0004820B5E613F0380FCED151E703219DF8F7
:103CF0004A2013F0780F61F3020214BF012300235E
:103D00008DF84A20E4E70123E2E79DF948100029F5
:103D1000ACBF4FF0FF311399B0E69F077FF5BDAE02
:103D2000149F00230428CDE913339DF8493007D1AF
:103D3000990705D49DF949100029ACBF06270D2726
:103D400002F00702012AC3F3C30332D1DA1E042AA8
:103D500004D8DFE802F02045452020002268012B2E
:103D60004FEAE271CDE910211BD19DF94020D11716
:103D7000CDE9102104349DF84820069292074FD0D7
:103D800032465046059B039936F01AFB0028C0F2D4
:103D90006F830544CFE554F8042BD117CDE91021EA
:103DA000E9E7022BE6D111B242F3C032CDE910129D
:103DB000E0E7022A24D1DA1E042A04D8DFE802F060
:103DC000181010181800012B4FF0000154F8042BA4
:103DD00014D0022BCDE91021CDD192B21092CAE7B6
:103DE000073424F00704F4E80201CDE91001C2E72A
:103DF00054F8042B109200221192BCE7D2B2CDE706
:103E0000042A08D1073424F00704D4E90001083457
:103E1000CDE91001AFE7032AADD154F8042BDDE75B
:103E20009DF84B80B8F1780F3FF685ADB8F1570F8C
:103E30005CD8B8F1250F00F0A380B8F1240F7FF60D
:103E40007AADB8F1410F04D0A8F14503022B3FF63B
:103E500072ADDDE91023002BC0F24B8106990807F3
:103E600000F14A81C1F300194FEA4919C3F30A511D
:103E7000C3F31303002940F0428152EA030014BF48
:103E80004FF0010C4FF0000CD80240EA5250D6021D
:103E9000CDE90C60B8F1460F46EA010640EAE17050
:103EA00008BF4FF06608304300F0B081BCF1000F4E
:103EB00010D01B0343EA12531603324618464FF044
:103EC000000C002880F24F81BCF1000F40F05281BD
:103ED000CDE90C630D9BA1F2FE3B43F000430D9333
:103EE0000021DDE90C230E46052059E1A8F1580216
:103EF000202A3FF620AD01A151F822F0C540000074
:103F000037390000373900003739000037390000F1
:103F100037390000373900003739000037390000E1
:103F2000533E00003739000071400000854000001A
:103F3000533E0000533E0000533E0000373900005E
:103F4000854000003739000037390000373900005C
:103F500037390000CB400000C5400000154000008C
:103F60003739000037390000913F00003739000031
:103F7000C54000003739000037390000C540000057
:103F800040460399D0470028C0F272820135D2E43E
:103F9000002F109E3ADB3946304637F033F8371899
:103FA000002E3FF4C8AC4FF000099DF84A3013F0E2
:103FB0001002069200F05182023013F04003DDF847
:103FC0004C80089318BF149B404418BFC018049B32
:103FD000CDF81C80002B40F35B829DF848201B1A13
:103FE00004935307C2F3800B00F15282500640F154
:103FF0004282B9F1000F07D048460399D047002804
:10400000C0F23682D9460135302235E2304636F0EC
:10401000A7FFC4E71098002800F01A820DF175037D
:104020000093002117AB12AA36F082F94FF0000975
:104030000646BDF84A3003F0EF0343F4F04343F083
:104040001003ADF84A30002F0CDB9DF848200DF12D
:1040500075039B1B6FF386129F428DF8482001D990
:10406000FB1A1393002E3FF466AC0DF1750767E061
:10407000109B4FF0000901208DF85C300DF15D07B9
:1040800017AE92E7069B1E0754BFC3F300194FF00B
:104090002B09DDE9102358BF4FEA4919002B06DA36
:1040A0004FF02D09524263EB4303CDE91023DDE9C4
:1040B00010010DF17503009312AA17AB36F038F911
:1040C0000646C0E74FF00009F1E7109A072B3FF6CC
:1040D00032ACDFE803F00C04060C08080C0C157079
:1040E00029E4158027E4EB17C2E9005323E41560A7
:1040F00021E44FF02D09B9E64FF02B09B6E640F266
:10410000FF7081422CD11343A8F141081FD1B8F1AF
:104110001A0F35BF492369234E216E2134BF462231
:1041200066228DF85C309DF848308DF85D106FF395
:1041300086138DF85E208DF848300DF15F0717AEBD
:10414000B81BB9F1000F3FF430AF01302DE7B8F1E3
:10415000190F8BBF6E234E23612141211A46E0E7E0
:104160004FF0000C90E692184FF0010C01F1FF3176
:104170004041A6E6CDE90C20ACE6520842EAC37203
:104180005B08B3F1333F59460BF1010BF5D201F156
:10419000020B012100FB03FCA2FB0023013E634450
:1041A0001BF1020FE9DB09B1CDE90C23DDE90C328B
:1041B000BBF1000F2DDCCBF10401A1F120000BF1CC
:1041C0001C0B02FA0BFB22FA00F0CA40CB4007920C
:1041D00008F0DF0243EA0B03472A43EA00037BD1DE
:1041E000F21C01DBB7422ADAA8F10208002F5FFABD
:1041F00088F87ADD9DF84820013F900675D4B7F124
:10420000000B18BF4FF0010B7A1C26E04FF0000B9B
:1042100066E6023342F100020CA80BF1FF3B0136C7
:10422000CDE90C3236F055F8DDE90C32DB1852419D
:10423000002A0BF1FF3BF9DACDE90C32B6E79DF825
:104240004820BF1B91064DD4B7F1000B18BF4FF0AB
:10425000010BBA194FF066084AD4102AA8BF1022E1
:104260009FEDA97B10208DED0E7B0B90DDE90E01FB
:10427000002A3FD1079A1B1842EB0101B1F1805F80
:1042800047D2CDE90C31069BB8F1660F03F020024E
:1042900040F0BE80002E47DC30238DF85C30002AD1
:1042A0006ED1002F40F3BD812E238DF85D3086B195
:1042B0007342BB42A8BF3B46002B1393A7EB0307F7
:1042C000D4BF002301239DF84A2063F345128DF8E3
:1042D0004A200DF15E0340E0B8F1660F4FF0000B8D
:1042E000B7D091E74FF0000BB3E74FF0000B8BE72F
:1042F0000022B5E7400840EAC1704908CDE90E0147
:104300000EA8CDE9082335F0E4FF089A099B013A8D
:10431000ACE75B0843EAC1730CA84908CDE90C314E
:10432000013635F0D6FFAEE717AB0B9900290BDD50
:104330000BA90CA8CDE9063235F0E3FF069B013E40
:10434000079A03F8010BF0D11396AAB9002F40F396
:1043500066812E2103F8011B0026002F19DD0B9A20
:10436000002A16DD0BA90CA8069335F0CAFF069BA0
:10437000013F03F8010BF0E72E2203F8012BEBE7D6
:104380002E238DF85D30002EA3D0002F90DC0DF190
:104390005E03BBF1000F4FD114971F4608F0DF03F7
:1043A000452B24D1002EBABF76422D232B23632E1A
:1043B000C8BF64227B70C4BFB6FBF2F302FB136676
:1043C0004FF00A02C8BF03F13001B6FBF2F3C8BFD9
:1043D000B97003F1300102FB136387F8008003F129
:1043E0003003D4BF0237033739707B700237139B19
:1043F000002B2BDC149B002BD4BF002301239DF842
:104400004A2063F3861200238DF84A203B7096E61B
:104410000BA90CA8069235F074FF069A30288DF887
:104420005C0018BF06F1FF3612B9002F40F3F98087
:104430002E238DF85D304CE71F4617F8012C013B09
:10444000302AF9D02E2A08BF1F46A7E70123D6E756
:104450002F4F81467E1F0520A7E51A0748BF013070
:10446000ABE5104609920399D0470028099A05DA6E
:104470001FB0BDE8F08F2022DDF810B059460029AA
:104480000BF1FF3BEDDC049BCDF810B02B445D1A23
:10449000B9F1000F05D048460399D0470028E7DB63
:1044A0000135089B002B7FD09DF94930002B31DB73
:1044B000B3469BF80000D946A0F13003092B0BF15D
:1044C000010B48D99DF84A30AE1B99064E4407D4DB
:1044D0004246002A08F1FF3842DC079B33449E1A0B
:1044E00099F800002E280AD10399D0470028BFDB95
:1044F000B8F1000F06F1010638DC09F101094D465B
:104500003FE000BFAFF300800000000000000008A3
:10451000A0890400B14699F80000C846702809F146
:10452000010913D1AE1B149D46443544AB1B002B2F
:1045300032DC3B4642465046039935F041FF0028A5
:1045400096DB3044049E0546064463E00399D04759
:104550000028E0DA8CE70399D0470028A9DA87E73A
:1045600030200399D0470028B2DA81E73020039940
:10457000D04708F1FF38B9E70399D0470028FFF684
:1045800077AF2878A846A0F13003092B05F1010583
:10459000F2D9A6EB0906C6E730200399D0470028D8
:1045A000FFF666AF0136C1E79DF84A30DA0601D45E
:1045B0001B0706D530200399D0470028FFF658AFD7
:1045C0000135069B3BB103999DF84B00D04700286D
:1045D000FFF64EAF0135A84406E030200399D047DE
:1045E0000028FFF645AF0135A8EB0503002BF4DCEE
:1045F0003B4632465046039935F0E2FE0028FFF66E
:1046000037AF28449EE720200399D0470028FFF6C3
:104610002FAF0135731B002BF5DCFFF78CB9164665
:10462000B7E60DF15D03B4E62DE9F0431F461B7CB0
:104630000E467D2B804615460469F96885B00AD977
:104640000121AF4AAF4836F013FB6FF079052846D9
:1046500005B0BDE8F0839A1C84F8D82504F2D9503F
:104660001A4636F0ABFC04F5B869484612F042FF32
:10467000022E34D00BD9F31E012B4BD90121334626
:10468000A14AA04836F0F4FA6FF08505DFE7002371
:10469000ADF80D3095F84A3006F00106C3F340023C
:1046A000C3F380038DF8093001238DF80B30974B4D
:1046B00002A993F8843604F5BB608DF808208DF8C4
:1046C0000A608DF80C300CF02DFA002866D101211B
:1046D0008F4A8C4837F083F96FF00405B7E7002361
:1046E000ADF80C3095F84A3002A9C3F34002C3F389
:1046F00080038DF8093001238DF80A30834B04F5CF
:10470000BB6093F884368DF808208DF80B300CF0E0
:104710003BFADAE70023CDF80B3095F84A30C3F3C3
:104720004002C3F380038DF80930331F5E425E41BF
:104730008DF808208DF80A603BF084F8D5E908620E
:1047400001238DF80C30714B8DF80B0093F88436F3
:104750008DF80D306F4BB3424FF00203934118D3E5
:104760006D4BA6FB036103FB0211AB6AF01841F12C
:1047700000014FF47A720023FEF794FB40F09CFC9A
:104780000B4602A90246009104F5BB603BF07EF89F
:104790009BE74FF0FF306FF00041EAE75B4BD3F847
:1047A0007C361BB13A460021404698474FF0FF3215
:1047B0004FF0FF33484612F077FE94F8822695F8C2
:1047C0004A3062F3410385F84A3094F88326DBB21D
:1047D00062F3820385F84A3094F85836052B3FF689
:1047E0007BAF01A252F823F007480000ED4800001B
:1047F000E748000001480000D9460000E7480000F3
:104800006FF0680523E7D4F86456002D3FF41FAF1E
:1048100004F5CE6757E9023213430ED102213F4A15
:10482000384837F0DCF86FF02205D4F864063BF026
:1048300059F80023C4F8643609E7002200232D78D4
:104840002068CDE90023002329461A4603F044FCE2
:10485000064638B90121324A2A4837F0C0F86FF0CD
:104860000B05E2E7D4F864162A46013136F02BFF37
:1048700000280ADA01212B4A224837F0B0F86FF0FD
:104880000B05304636F05EFECFE794F870364FF4F5
:104890007A7586F8483094F97136AE339BB2FE2BA8
:1048A00028BFFE2386F8493057F8080C57F804CC87
:1048B000A0FB050110A3D3E9002305FB0C11FEF7B3
:1048C000F1FAC6E90801B262304636F06DFE3146B3
:1048D00020680BF03DFA20B10321134A094837F054
:1048E0007EF80025CDE76FF02205B0E66FF00F05EA
:1048F000ADE600BFAFF3008000CA9A3B00000000A5
:10490000DD92040048680400F3920400882B002024
:104910000C930400037DC12500CA9A3B1E9304003A
:10492000359304004F9304006C93040000000000D2
:104930002DE9F0472DED028B80469FED318BDFF89E
:10494000D4A082B04FF0FF324FF0FF3308F5816002
:1049500012F052FD4368044693F800900023494644
:104960001A468DED008BD8F8000003F0B5FB6168A6
:104970004A460131054636F0A6FE814670BB237CCF
:104980004FF47A7185F8483094F91130AE339BB208
:10499000FE2B28BFFE2385F84930A27C95F84A30CB
:1049A00062F3000385F84A30A068E668A0FB010CBA
:1049B00016A3D3E9002301FB06C1FEF773FAC5E98C
:1049C0000801AA622946D8F8000036F079FB0028D1
:1049D0000DDA524601210C4837F001F800236068D7
:1049E00063603AF07FFF284636F0ACFDAAE76068C6
:1049F000C4F804903AF076FFA4E700BFAFF300805C
:104A0000FFFFFFFFFFFFFFFF4868040000CA9A3B5B
:104A100000000000909304002DE9F0411446056960
:104A2000B9B9B5F90000297B714D80FB0101A0FBEC
:104A3000050647F6FF72002305FB0161FEF732FA17
:104A400000236C4AFEF72EFA206062600020BDE869
:104A5000F0810139062900F2C280DFE801F0040785
:104A60000A4865686B00B5F90200DCE7B5F9040097
:104A7000D9E7B5F90000297B5D4E80FB0101A0FB61
:104A8000060747F6FF72002306FB0171FEF70AFADC
:104A90000023584AFEF706FAC4E90002B5F90200FD
:104AA000297B47F6FF7280FB0101A0FB060700236C
:104AB00006FB0171FEF7F6F900234E4AFEF7F2F904
:104AC000C4E90202B5F90400297B47F6FF7280FBB6
:104AD0000101A0FB0605002306FB0151FEF7E2F9E8
:104AE0000023444AFEF7DEF920616261AEE7B5F9C2
:104AF00006302A8A83FB02523F4BA5FB035603FB79
:104B0000026639A3D3E9002328463146FEF7CAF9E5
:104B10000023206031462846384AFEF7C3F90023B7
:104B2000344AFEF7BFF990E7B5F90830E1E7B5F987
:104B30000A30DEE7B5F906702B8A2F4E87FB037328
:104B4000A7FB067806FB038827A3D3E90023384692
:104B50004146FEF7A7F90023206041463846274A20
:104B6000FEF7A0F90023234AFEF79CF96260B5F92D
:104B700008702B8A87FB0373A7FB067806FB038864
:104B800019A3D3E9002338464146FEF78BF90023E9
:104B9000A06041463846194AFEF784F90023154AB9
:104BA000FEF780F9E260B5F90A302A8A83FB0252E7
:104BB000A5FB065306FB02360BA3D3E900232846C8
:104BC0003146FEF76FF900232061314628460B4A33
:104BD000FEF768F90023074AFEF764F985E76FF0EE
:104BE000850034E7AFF30080006BC53F5D05000032
:104BF0003AA3950040420F00D8EF2F004CFF590018
:104C00002DE9FF47054690460C46D0F8109021B993
:104C10001AB9002004B0BDE8F087012340212846DE
:104C20000DF10E0237F07FF80028F3D101237D212A
:104C300028460DF10F0237F076F80028EAD1FCB9CA
:104C4000B8F1000FE5D099F80D20D8F80030072A08
:104C500000F25881102B00F0768100F36881013B4F
:104C6000072B00F27881072B00F27581DFE813F043
:104C70006901670173015D017301730173016D01C6
:104C80006068FDF70BFEC2A3D3E90023FDF79AFF8E
:104C9000064620680F46FDF701FE02460B463046E9
:104CA0003946FDF7AFFC9DF80E400022AC4B06469E
:104CB0000F469DF80FA004F0F004FEF7DFF840B1B6
:104CC000002230463946A74BFEF7C4F8002840F0D2
:104CD0001381002230463946A24BFEF7CFF840B18F
:104CE000002230463946A04BFEF7B4F8002840F0C9
:104CF000FD800022304639469B4BFEF7BFF840B19D
:104D0000002230463946994BFEF7A4F8002840F0BF
:104D1000E780002230463946944BFEF7AFF840B1A9
:104D2000002230463946924BFEF794F8002840F0B6
:104D3000D1800022304639468D4BFEF79FF840B1B6
:104D40000022304639468B4BFEF784F8002840F0AD
:104D5000BB80002230463946864BFEF78FF840B1C3
:104D6000002230463946844BFEF774F8002840F0A4
:104D7000A5800022304639467F4BFEF77FF840B1D0
:104D80000022304639467D4BFEF764F8002840F09B
:104D90008F80002230463946784BFEF76FF838B1E5
:104DA000002230463946764BFEF754F8002879D178
:104DB000002230463946724BFEF760F838B10022C7
:104DC000304639466F4BFEF745F8002864D1002283
:104DD000304639466B4BFEF751F838B10022304669
:104DE0003946694BFEF736F800284FD1002230468D
:104DF0003946654BFEF742F830B10022304639465D
:104E0000624BFEF727F8D8BB0022304639465F4B8D
:104E1000FEF734F878B30C2044F00C044AF0040A8E
:104E200044F080048DF80FA08DF80E4089F80D0035
:104E3000B8F1000F7FF407AF0123402128460DF1A0
:104E40000E0236F0A0FF00287FF4E4AE4FF4E170CC
:104E500036F067FF9DF80F307D2103F00F038DF8CA
:104E60000F304FF47A73284600930DF10F0201239F
:104E700036F091FFCEE60AF0FB0A04F07F04D1E79A
:104E80000B2044F00B044AF0040AC9E70A2044F05E
:104E90000A044AF0040AC3E7092044F009044AF06E
:104EA000040ABDE7082044F008044AF0040AB7E702
:104EB000072044F007044AF0040ADEE7062044F025
:104EC00006044AF0040AD8E7052044F005044AF035
:104ED000040AD2E7042044F004044AF0040ACCE7B0
:104EE000032044F003044AF0040AC6E7022044F019
:104EF00002044AF0040AC0E7012044F001044AF029
:104F0000040ABAE7022B1AD0042B1AD0012B0CBFCB
:104F1000022303239DF80E201B0122F0300203F030
:104F2000300313438DF80E3086E70223F2E7402B5F
:104F30000DD0802B0DD0202B0DD10523EAE70123C6
:104F4000E8E70023E6E70423E4E70323E2E7062398
:104F5000E0E70723DEE76FF085005BE6AFF3008054
:104F60000000E93F0000F93F00000940000019403F
:104F7000000029400000394000004940000059402D
:104F8000000069400000794000008940000099401D
:104F90000000000080842E412DE9FF470546904621
:104FA0000C46D0F8109021B91AB9002004B0BDE821
:104FB000F0870123422128460DF10E0236F0B3FEA0
:104FC0000028F3D101237D2128460DF10F0236F090
:104FD000AAFE0028EAD1A4B9B8F1000FE5D0D8F8AC
:104FE0000030022B00F0F780043B18BF01235B0068
:104FF0009DF80E2022F0300242EA03138DF80E30A5
:105000009BE06068FDF74AFC7DA3D3E90023FDF730
:10501000D9FD064620680F46FDF740FC02460B46C8
:1050200030463946FDF7EEFA9DF80E4000226C4BF3
:1050300006460F469DF80FA004F0F004FDF71EFF92
:1050400040B1002230463946664BFDF703FF002889
:1050500040F0BB80002230463946624BFDF70EFF20
:1050600040B10022304639465F4BFDF7F3FE002881
:1050700040F0A5800022304639465B4BFDF7FEFE2E
:1050800040B1002230463946584BFDF7E3FE002878
:1050900040F08F80002230463946544BFDF7EEFE3B
:1050A00038B1002230463946514BFDF7D3FE002877
:1050B00079D10022304639464D4BFDF7DFFE38B13D
:1050C0000022304639464B4BFDF7C4FE002864D120
:1050D000002230463946474BFDF7D0FE38B100225A
:1050E00030463946444BFDF7B5FE00284FD100222B
:1050F00030463946404BFDF7C1FE30B10022304604
:1051000039463E4BFDF7A6FED8BB00223046394655
:105110003A4BFDF7B3FE78B30D2044F00D044AF08E
:10512000020A44F0C0048DF80FA08DF80E4089F8F3
:105130000E00B8F1000F7FF452AF01234221284640
:105140000DF10E0236F01FFE00287FF42FAF4FF452
:10515000E17036F0E6FD9DF80F307D2103F00F037E
:105160008DF80F304FF47A73284600930DF10F023B
:10517000012336F010FE19E70AF0FD0A04F03F049F
:10518000D1E70C2044F00C044AF0020AC9E70B20D6
:1051900044F00B044AF0020AC3E70A2044F00A0470
:1051A0004AF0020ABDE7092044F009044AF0020A65
:1051B000B7E7082044F008044AF0020AB1E70720E4
:1051C00044F007044AF0020AD8E7062044F0060437
:1051D0004AF0020AD2E701230AE700BFAFF30080DA
:1051E000000039400000494000005940000069407B
:1051F0000000794000008940000099400000A9406B
:105200000000000080842E4137B5114C3C21A56878
:105210002046EB68984770B90C216A4620462B69F6
:10522000984740B90B4B009A93F90010914202D075
:105230001A703AF00BFB04A3D3E90023064812F0DE
:105240002DFB03B030BD00BF389C1C0000000000E7
:10525000D8670400880900202834002008B50321FD
:10526000054A064834F0C4FCBDE808400122082184
:10527000034834F0BFBC00BF64860400F867040034
:1052800018670400342110B51EF0D4FE00234360DB
:10529000037863B90389062B09D143893BB9047BA1
:1052A0000A4B34B1012283F87E20FFF7D7FF00209C
:1052B00010BD0321064A074883F87E4034F098FC6D
:1052C00022460821044834F095FCF0E79C91002028
:1052D00070860400F8670400186704002DE9F04F99
:1052E0008BB002AFDFF8108240463BF0A5F928B939
:1052F0000121714A714834F07BFC74E0FD230124E4
:105300004FF0020A3B713B1D7B61BC6187F81CA01A
:105310003B7FD8F8085043EA0A033B7707F1140BA8
:105320004423224659464046AE68B047002140F229
:10533000391012F0C3FD032307F10C09C7F81490CC
:10534000BB613B773B7F224643EA0A033B775946E2
:105350004423AD684046A8470025FF23312251462B
:105360004846009534F056FCBB7B83425CD1B9893A
:10537000534849BA89B24FF6FF720023A1FB0001DE
:10538000FDF790FD4F4B0A2210EB030861F1000975
:10539000002340464946FDF785FD2B46B88222464C
:1053A000CDE900B540F202410A2037F0DAF8404674
:1053B00049464FF47A720023FDF774FD6E468AB0B9
:1053C00002ACC4E90712636222460623DFF82CC14F
:1053D000C4E905C042F8103F4FF443512B4637480B
:1053E00001F03CF9B546384C20463BF025F9002841
:1053F0005CD00321354A314834F0FAFBA3683C21E4
:10540000DB6820469847034688B1314A01212B4882
:1054100035F02EFC4FF4A37200212E480AF0AEF8AE
:105420002437BD46BDE8F08F21462B4A62E701468E
:105430003A1D204634F0D9FB034608B1274AE5E778
:105440000121204607F10C0234F0CFFB034608B1DE
:10545000234ADBE70221204607F1140234F0C5FBA2
:10546000034608B11F4AD1E7D7E90132002AB8BF85
:1054700052420321009211481B4A35F003FCD7E940
:105480000332002AB8BF5242032100920B48174A48
:1054900035F0F8FBD7E90532002AB8BF52420321A4
:1054A00000920648124A35F0EDFBB3E70121114A9C
:1054B000024834F09DFBADE77B860400F8670400EA
:1054C00098AB02003850FFFFC0670400C986040093
:1054D000E9860400DD520000B58604000887040058
:1054E0002887040048870400688704007887040040
:1054F0008887040098870400786704009986040070
:1055000000232DE9F04383B000AF394604463B60E9
:105510003DF071FA054620461EF0CCFEEA1E064616
:10552000072A3CD8DFE802F0303B04093B3B3B1440
:105530000321324A324834F05BFB022005F056F872
:1055400014B120461EF0C8FA0C37BD46BDE8F08302
:10555000F8B923F0BFFC814623F0E0FCE84605469D
:1055600023F062FD8AB06A4605232649C2E9075046
:10557000C2E9051942F8103F4FF423513346204841
:1055800001F06CF8C546DBE703211F4A1C4834F0E4
:105590002FFB422202211D4809F0F0FFD0E72046F0
:1055A00009F066FC45420028CAD0284604F09CF960
:1055B0006E468CB06B461649D861C3E9051515498E
:1055C00003F1100279601449381D1962852103F135
:1055D0002B05596203F1270110F801CB01F801CF27
:1055E000A942F9D10D49196100234FF461510448D2
:1055F00001F034F8B5460AF0D9F8A1E7B6870400FF
:10560000F8670400DC8704001B880400EDA5000097
:1056100037880400010302044E88040006000002DB
:105620007FB50321424A434834F0E2FA4248026916
:105630008168136843F4807313600B683F4A082144
:1056400098473F4C20463AF0F7FF002842D101210D
:105650003C4A384834F0CCFA06F0F0FC3A4B0024CF
:10566000C0F89C3039483BF072FD0822384B0620C8
:105670001A70032283F857204FF26002A3F88220A9
:1056800043F2D402A3F884201422A3F87C40A3F8A8
:10569000862083F87E40A3F8804022F0A7FB40F2EA
:1056A000A27022F0B1FB012009F07EFE40F6B83076
:1056B00028F0F2F90AF0E2F842222146254809F0E2
:1056C0005DFF4FF0FF314FF0FF3012F0F7FB204647
:1056D00004B070BD00236422CDE900230222CDE98D
:1056E0000223A5682E686EB107220321204602AB73
:1056F000B047024648B11346174A01210D4835F01C
:10570000B7FAA9E76FF05702F5E72D683DB16B4690
:1057100003212046A847034620B1104AEDE76FF069
:105720005703FAE7002140F21B6012F0C7FB93E732
:1057300079880400F86704001867040001000A0073
:10574000C0670400988704008552000068080020A4
:105750009C910020DD520000A8880400C988040044
:105760002DE9F04F91B0009302F004030293C2F3CD
:10577000C2030133840705460E46DDF868900392A4
:10578000059340F0BB81041D30B1072909D86FF0A3
:105790001B0011B0BDE8F08F01F00706341DC6F103
:1057A0000806009B4FF000084FF0040A591E4FF006
:1057B000FF3347460193C3465346CDF810800DB1E1
:1057C000009820600598002800F3E8809848009A27
:1057D000824203D397488242C0F0E080039AA4EB50
:1057E000050E92074FEA9E0000F103810F2F00F291
:1057F000B180002D00F0058107F140020DEB020C95
:10580000019A0CF8200C0CF8102C0498013004902C
:10581000E7E07A285DD84B280ED8472859D82928A0
:105820002DD8252852D054D820287AD02338D0F12A
:10583000000B4BEB000B74E04C382E2849D8DFE806
:1058400000F07048484848484848484848484B484D
:105850004848484848484859484B4B595959704B53
:105860006D487048184B184848827F4B48484B4851
:105870007F0000204FF0000B4FF0040A38E00122B7
:105880002A38C0B202FA00F010EA0E0F49D110F027
:10589000625C2FD110EA020B43D06046013C5444B5
:1058A000B4FBFAF40AFB04F4002D61D0A3EB050C61
:1058B000A444B4453FF66BAF002868D1042B47D110
:1058C00059F8043B2360042304342AE0019A013A86
:1058D00001924FF0000B24E011F8010C6C2834D138
:1058E000002011F8023C83466C2BC5D14FF0080A0A
:1058F0005346D3E709F1070929F00709073424F0D3
:105900000704F9E802AB35B106982044B0423FF6EF
:105910003EAFC4E900AB4FF0000B08344FF0080A6B
:10592000534611F8010F002878D0BBF1000F7FF427
:1059300070AF2528F5D14FF0010B019B0133019386
:105940004FF0040AECE7584694E700208346A5E7A9
:10595000082B02D06FF015001BE709F1070929F0A9
:105960000709B9EC027B84ED007B08230834D8E7F3
:1059700068B9042B02D109F10409A4E7082BE9D185
:1059800009F1070929F0070909F10809EDE7059868
:105990000138059059F8040B009010E7039A90071E
:1059A00020D54FF0010CA4EB050E4FEA9E00BEF58A
:1059B000007FCFD20F2FCDD8F5B107F140020DEB0C
:1059C000020E019AC0B20EF8200C0EF8102CBCF199
:1059D000000F3FF41AAF60F07F000EF8200C08F1C2
:1059E00001080137C5F108024FF6DA7E0434069249
:1059F00097E74FF0000CDAE7BCF1000F01D0013659
:105A0000EFE7029A0236002AEBD10098CDE9063181
:105A100035F0A6FADDE906310644E2E7631BB3F58B
:105A2000806F97D245B9A6F10804E018B1E600BF2F
:105A3000F86504003CA60400029A9B0828602B70BD
:105A40009DF81030C2B1EB7085F80280B8F1000FFC
:105A500005D0002208A8C5F1010C97420ED14FF0E5
:105A6000000AC5F101030DF1200901930DF1300B7E
:105A7000574512D1601B8CE66B70E5E710F8013BCF
:105A8000190608D504EB0C0EB64503F07F033FF66C
:105A90007EAE04F8013B0132DFE7B8F1000F03D01E
:105AA00099F90020002A17DB029BD3B11AF80B20CA
:105AB00004F8012B0022019B98182044B0423FF6C5
:105AC00066AE99F80000009904F8010B2046039295
:105AD00035F074FA039A14440AF1010A09F1010934
:105AE000C6E799F8002055F822300093029B0098F1
:105AF00045F8223035F034FA421CDCE76FF00D0037
:105B000047E600BF2DE9F04F95B000AFD7F878B069
:105B1000BB61CBF3C00304467A627B61396251B941
:105B200003784678807800EB830020443B6A9E42ED
:105B30001BD8031B3B6294F8029094F803A04E46D6
:105B4000B9F1000F02D01BF0010F18D1BAF1000F0C
:105B50002BD17B6A1BB12046BA69396A98473D6AE6
:105B600028465437BD46BDE8F08F451C284635F021
:105B7000F7F93B6A0130013328443B62D6E763689A
:105B80002578FB617B6AAA003A6104EB8501002B52
:105B900040F0FF800E464FF000083D6A09EB01031C
:105BA000B3424BD101EB090610E01BF0020FD0D03D
:105BB0002578AB003B61636804EB8501FB617B6A80
:105BC000002B74D198463D6A01EB09061BF0050FC6
:105BD0000CBF022301237B620BF0020306EB4A0A8F
:105BE0003B625645BCD016F8021B16F8013C54F82F
:105BF0002390AD4B994502D3AC4B994536D37B6985
:105C0000002B40D0F86934F007FB00283BD0E94670
:105C10008AB06A46A64B5361FB69C2E906314FF46C
:105C200000731384A34B42F8103F00234FF412512A
:105C3000A14800F013FD023DCD46D2E716F8012B36
:105C4000C7E9081354F8220035F08AF9D7E9081398
:105C5000FA6F013042B1D7F8802090453EBFFA6F0D
:105C600022F8180008F10108054499E77B6923B17F
:105C7000F86934F0D1FA0028C9D11BF0010F05D121
:105C80007B6AED1AADE73B6A002BAAD0484635F097
:105C900067F9FB6F4BB1D7F8803098453FBFFA6F7B
:105CA000431C22F8183008F10108054499E7B9F1BE
